{
  "contractName": "SimpleInvoice",
  "abi": [
    {
      "anonymous": false,
      "inputs": [
        {
          "indexed": false,
          "internalType": "uint256",
          "name": "id",
          "type": "uint256"
        },
        {
          "indexed": false,
          "internalType": "address",
          "name": "seller",
          "type": "address"
        },
        {
          "indexed": false,
          "internalType": "address",
          "name": "buyer",
          "type": "address"
        },
        {
          "indexed": false,
          "internalType": "uint256",
          "name": "amount",
          "type": "uint256"
        },
        {
          "indexed": false,
          "internalType": "uint256",
          "name": "dueDate",
          "type": "uint256"
        }
      ],
      "name": "InvoiceCreated",
      "type": "event"
    },
    {
      "anonymous": false,
      "inputs": [
        {
          "indexed": false,
          "internalType": "uint256",
          "name": "id",
          "type": "uint256"
        }
      ],
      "name": "InvoicePaid",
      "type": "event"
    },
    {
      "anonymous": false,
      "inputs": [
        {
          "indexed": true,
          "internalType": "address",
          "name": "seller",
          "type": "address"
        },
        {
          "indexed": false,
          "internalType": "uint256",
          "name": "amount",
          "type": "uint256"
        }
      ],
      "name": "Withdraw",
      "type": "event"
    },
    {
      "inputs": [
        {
          "internalType": "address",
          "name": "",
          "type": "address"
        }
      ],
      "name": "balances",
      "outputs": [
        {
          "internalType": "uint256",
          "name": "",
          "type": "uint256"
        }
      ],
      "stateMutability": "view",
      "type": "function",
      "constant": true
    },
    {
      "inputs": [
        {
          "internalType": "uint256",
          "name": "",
          "type": "uint256"
        }
      ],
      "name": "invoices",
      "outputs": [
        {
          "internalType": "address",
          "name": "seller",
          "type": "address"
        },
        {
          "internalType": "address",
          "name": "buyer",
          "type": "address"
        },
        {
          "internalType": "uint256",
          "name": "amount",
          "type": "uint256"
        },
        {
          "internalType": "enum SimpleInvoice.Status",
          "name": "status",
          "type": "uint8"
        },
        {
          "internalType": "uint256",
          "name": "dueDate",
          "type": "uint256"
        }
      ],
      "stateMutability": "view",
      "type": "function",
      "constant": true
    },
    {
      "inputs": [
        {
          "internalType": "address",
          "name": "buyer",
          "type": "address"
        },
        {
          "internalType": "uint256",
          "name": "amount",
          "type": "uint256"
        },
        {
          "internalType": "uint256",
          "name": "dueDate",
          "type": "uint256"
        }
      ],
      "name": "addInvoice",
      "outputs": [],
      "stateMutability": "nonpayable",
      "type": "function"
    },
    {
      "inputs": [
        {
          "internalType": "uint256",
          "name": "invoiceId",
          "type": "uint256"
        }
      ],
      "name": "payInvoice",
      "outputs": [],
      "stateMutability": "payable",
      "type": "function",
      "payable": true
    },
    {
      "inputs": [],
      "name": "withdraw",
      "outputs": [],
      "stateMutability": "nonpayable",
      "type": "function"
    },
    {
      "inputs": [
        {
          "internalType": "uint256",
          "name": "invoiceId",
          "type": "uint256"
        }
      ],
      "name": "getInvoice",
      "outputs": [
        {
          "internalType": "address",
          "name": "",
          "type": "address"
        },
        {
          "internalType": "address",
          "name": "",
          "type": "address"
        },
        {
          "internalType": "uint256",
          "name": "",
          "type": "uint256"
        },
        {
          "internalType": "enum SimpleInvoice.Status",
          "name": "",
          "type": "uint8"
        },
        {
          "internalType": "uint256",
          "name": "",
          "type": "uint256"
        }
      ],
      "stateMutability": "view",
      "type": "function",
      "constant": true
    }
  ],
  "bytecode": "0x608060405234801561000f575f80fd5b50610eaf8061001d5f395ff3fe608060405260043610610054575f3560e01c806327e235e3146100585780633a23cc0a146100945780633ccfd60b146100d45780634e6d1405146100ea578063ac60a6cd1461012a578063dabfd7ea14610146575b5f80fd5b348015610063575f80fd5b5061007e60048036038101906100799190610956565b61016e565b60405161008b9190610999565b60405180910390f35b34801561009f575f80fd5b506100ba60048036038101906100b591906109dc565b610183565b6040516100cb959493929190610a89565b60405180910390f35b3480156100df575f80fd5b506100e86102d8565b005b3480156100f5575f80fd5b50610110600480360381019061010b91906109dc565b610432565b604051610121959493929190610a89565b60405180910390f35b610144600480360381019061013f91906109dc565b6104bc565b005b348015610151575f80fd5b5061016c60048036038101906101679190610ada565b610707565b005b6001602052805f5260405f205f915090505481565b5f805f805f805f878154811061019c5761019b610b2a565b5b905f5260205f2090600502016040518060a00160405290815f82015f9054906101000a900473ffffffffffffffffffffffffffffffffffffffff1673ffffffffffffffffffffffffffffffffffffffff1673ffffffffffffffffffffffffffffffffffffffff168152602001600182015f9054906101000a900473ffffffffffffffffffffffffffffffffffffffff1673ffffffffffffffffffffffffffffffffffffffff1673ffffffffffffffffffffffffffffffffffffffff16815260200160028201548152602001600382015f9054906101000a900460ff16600181111561028a57610289610a16565b5b600181111561029c5761029b610a16565b5b81526020016004820154815250509050805f01518160200151826040015183606001518460800151955095509550955095505091939590929450565b5f60015f3373ffffffffffffffffffffffffffffffffffffffff1673ffffffffffffffffffffffffffffffffffffffff1681526020019081526020015f205490505f811161035b576040517f08c379a000000000000000000000000000000000000000000000000000000000815260040161035290610bb1565b60405180910390fd5b5f60015f3373ffffffffffffffffffffffffffffffffffffffff1673ffffffffffffffffffffffffffffffffffffffff1681526020019081526020015f20819055503373ffffffffffffffffffffffffffffffffffffffff166108fc8290811502906040515f60405180830381858888f193505050501580156103e0573d5f803e3d5ffd5b503373ffffffffffffffffffffffffffffffffffffffff167f884edad9ce6fa2440d8a54cc123490eb96d2768479d49ff9c7366125a9424364826040516104279190610999565b60405180910390a250565b5f8181548110610440575f80fd5b905f5260205f2090600502015f91509050805f015f9054906101000a900473ffffffffffffffffffffffffffffffffffffffff1690806001015f9054906101000a900473ffffffffffffffffffffffffffffffffffffffff1690806002015490806003015f9054906101000a900460ff16908060040154905085565b5f8082815481106104d0576104cf610b2a565b5b905f5260205f20906005020190505f60018111156104f1576104f0610a16565b5b816003015f9054906101000a900460ff16600181111561051457610513610a16565b5b14610554576040517f08c379a000000000000000000000000000000000000000000000000000000000815260040161054b90610c19565b60405180910390fd5b3373ffffffffffffffffffffffffffffffffffffffff16816001015f9054906101000a900473ffffffffffffffffffffffffffffffffffffffff1673ffffffffffffffffffffffffffffffffffffffff16146105e5576040517f08c379a00000000000000000000000000000000000000000000000000000000081526004016105dc90610ca7565b60405180910390fd5b8060020154341461062b576040517f08c379a000000000000000000000000000000000000000000000000000000000815260040161062290610d0f565b60405180910390fd5b6001816003015f6101000a81548160ff0219169083600181111561065257610651610a16565b5b02179055503460015f835f015f9054906101000a900473ffffffffffffffffffffffffffffffffffffffff1673ffffffffffffffffffffffffffffffffffffffff1673ffffffffffffffffffffffffffffffffffffffff1681526020019081526020015f205f8282546106c59190610d5a565b925050819055507f4d6cfd329415806d53db8988cd3c035f681754c229f8d7e5183507deae65cc16826040516106fb9190610999565b60405180910390a15050565b428111610749576040517f08c379a000000000000000000000000000000000000000000000000000000000815260040161074090610dd7565b60405180910390fd5b5f6040518060a001604052803373ffffffffffffffffffffffffffffffffffffffff1681526020018573ffffffffffffffffffffffffffffffffffffffff1681526020018481526020015f60018111156107a6576107a5610a16565b5b815260200183815250908060018154018082558091505060019003905f5260205f2090600502015f909190919091505f820151815f015f6101000a81548173ffffffffffffffffffffffffffffffffffffffff021916908373ffffffffffffffffffffffffffffffffffffffff1602179055506020820151816001015f6101000a81548173ffffffffffffffffffffffffffffffffffffffff021916908373ffffffffffffffffffffffffffffffffffffffff160217905550604082015181600201556060820151816003015f6101000a81548160ff0219169083600181111561089357610892610a16565b5b02179055506080820151816004015550507f3fbaae0f1597d7f24bf2231a5fe5248190743aecc5f3da7126965e14e3f1ca4d60015f805490506108d69190610df5565b338585856040516108eb959493929190610e28565b60405180910390a1505050565b5f80fd5b5f73ffffffffffffffffffffffffffffffffffffffff82169050919050565b5f610925826108fc565b9050919050565b6109358161091b565b811461093f575f80fd5b50565b5f813590506109508161092c565b92915050565b5f6020828403121561096b5761096a6108f8565b5b5f61097884828501610942565b91505092915050565b5f819050919050565b61099381610981565b82525050565b5f6020820190506109ac5f83018461098a565b92915050565b6109bb81610981565b81146109c5575f80fd5b50565b5f813590506109d6816109b2565b92915050565b5f602082840312156109f1576109f06108f8565b5b5f6109fe848285016109c8565b91505092915050565b610a108161091b565b82525050565b7f4e487b71000000000000000000000000000000000000000000000000000000005f52602160045260245ffd5b60028110610a5457610a53610a16565b5b50565b5f819050610a6482610a43565b919050565b5f610a7382610a57565b9050919050565b610a8381610a69565b82525050565b5f60a082019050610a9c5f830188610a07565b610aa96020830187610a07565b610ab6604083018661098a565b610ac36060830185610a7a565b610ad0608083018461098a565b9695505050505050565b5f805f60608486031215610af157610af06108f8565b5b5f610afe86828701610942565b9350506020610b0f868287016109c8565b9250506040610b20868287016109c8565b9150509250925092565b7f4e487b71000000000000000000000000000000000000000000000000000000005f52603260045260245ffd5b5f82825260208201905092915050565b7f4e6f2066756e647320746f2077697468647261770000000000000000000000005f82015250565b5f610b9b601483610b57565b9150610ba682610b67565b602082019050919050565b5f6020820190508181035f830152610bc881610b8f565b9050919050565b7f496e766f69636520616c726561647920706169640000000000000000000000005f82015250565b5f610c03601483610b57565b9150610c0e82610bcf565b602082019050919050565b5f6020820190508181035f830152610c3081610bf7565b9050919050565b7f4f6e6c79207468652062757965722063616e20706179207468697320696e766f5f8201527f6963650000000000000000000000000000000000000000000000000000000000602082015250565b5f610c91602383610b57565b9150610c9c82610c37565b604082019050919050565b5f6020820190508181035f830152610cbe81610c85565b9050919050565b7f496e636f7272656374207061796d656e7420616d6f756e7400000000000000005f82015250565b5f610cf9601883610b57565b9150610d0482610cc5565b602082019050919050565b5f6020820190508181035f830152610d2681610ced565b9050919050565b7f4e487b71000000000000000000000000000000000000000000000000000000005f52601160045260245ffd5b5f610d6482610981565b9150610d6f83610981565b9250828201905080821115610d8757610d86610d2d565b5b92915050565b7f4475652064617465206d75737420626520696e207468652066757475726500005f82015250565b5f610dc1601e83610b57565b9150610dcc82610d8d565b602082019050919050565b5f6020820190508181035f830152610dee81610db5565b9050919050565b5f610dff82610981565b9150610e0a83610981565b9250828203905081811115610e2257610e21610d2d565b5b92915050565b5f60a082019050610e3b5f83018861098a565b610e486020830187610a07565b610e556040830186610a07565b610e62606083018561098a565b610e6f608083018461098a565b969550505050505056fea2646970667358221220f47b0228b1d0d04d8f540fc4ec32109722a1958f490148d3ef603e4ff097058a64736f6c63430008150033",
  "immutableReferences": {},
  "source": "// SPDX-License-Identifier: MIT\r\npragma solidity ^0.8.0;\r\n\r\ncontract SimpleInvoice {\r\n    enum Status { Pending, Complete }\r\n\r\n    struct Invoice {\r\n        address seller;\r\n        address buyer;\r\n        uint amount;\r\n        Status status;\r\n        uint dueDate;\r\n    }\r\n\r\n    Invoice[] public invoices;\r\n    mapping(address => uint) public balances;\r\n\r\n    event InvoiceCreated(uint id, address seller, address buyer, uint amount, uint dueDate);\r\n    event InvoicePaid(uint id);\r\n    event Withdraw(address indexed seller, uint amount);\r\n\r\n    // Create a new invoice\r\n    function addInvoice(address buyer, uint amount, uint dueDate) public {\r\n        require(dueDate > block.timestamp, \"Due date must be in the future\");\r\n\r\n        invoices.push(Invoice({\r\n            seller: msg.sender,\r\n            buyer: buyer,\r\n            amount: amount,\r\n            status: Status.Pending,\r\n            dueDate: dueDate\r\n        }));\r\n\r\n        emit InvoiceCreated(invoices.length - 1, msg.sender, buyer, amount, dueDate);\r\n    }\r\n\r\n    // Pay an invoice\r\n    function payInvoice(uint invoiceId) public payable {\r\n        Invoice storage invoice = invoices[invoiceId];\r\n        require(invoice.status == Status.Pending, \"Invoice already paid\");\r\n        require(invoice.buyer == msg.sender, \"Only the buyer can pay this invoice\");\r\n        require(msg.value == invoice.amount, \"Incorrect payment amount\");\r\n\r\n        invoice.status = Status.Complete;\r\n        balances[invoice.seller] += msg.value;\r\n\r\n        emit InvoicePaid(invoiceId);\r\n    }\r\n\r\n    // Withdraw funds\r\n    function withdraw() public {\r\n        uint amount = balances[msg.sender];\r\n        require(amount > 0, \"No funds to withdraw\");\r\n\r\n        balances[msg.sender] = 0;\r\n        payable(msg.sender).transfer(amount);\r\n\r\n        emit Withdraw(msg.sender, amount);\r\n    }\r\n\r\n    // Get details of an invoice\r\n    function getInvoice(uint invoiceId) public view returns (address, address, uint, Status, uint) {\r\n        Invoice memory invoice = invoices[invoiceId];\r\n        return (invoice.seller, invoice.buyer, invoice.amount, invoice.status, invoice.dueDate);\r\n    }\r\n}\r\n",
  "sourcePath": "A:\\InvoiceSystem\\truffle\\contracts\\SimpleInvoice.sol",
  "compiler": {
    "name": "solc",
    "version": "0.8.21+commit.d9974bed.Emscripten.clang"
  },
  "schemaVersion": "3.4.16",
  "updatedAt": "2024-12-13T11:08:13.828Z",
  "networkType": "ethereum",
  "devdoc": {
    "kind": "dev",
    "methods": {},
    "version": 1
  },
  "userdoc": {
    "kind": "user",
    "methods": {},
    "version": 1
  }
}